{
  "address": "0x7cD37fE7209294c1B28C62f27f92370b92219378",
  "abi": [
    {
      "inputs": [
        {
          "internalType": "contract IEntryPoint",
          "name": "_entryPoint",
          "type": "address"
        },
        {
          "internalType": "contract BicPermissions",
          "name": "_permissions",
          "type": "address"
        }
      ],
      "stateMutability": "nonpayable",
      "type": "constructor"
    },
    {
      "inputs": [],
      "name": "accountImplementation",
      "outputs": [
        {
          "internalType": "contract BicAccount",
          "name": "",
          "type": "address"
        }
      ],
      "stateMutability": "view",
      "type": "function"
    },
    {
      "inputs": [
        {
          "internalType": "address",
          "name": "owner",
          "type": "address"
        },
        {
          "internalType": "uint256",
          "name": "salt",
          "type": "uint256"
        }
      ],
      "name": "createAccount",
      "outputs": [
        {
          "internalType": "contract BicAccount",
          "name": "ret",
          "type": "address"
        }
      ],
      "stateMutability": "nonpayable",
      "type": "function"
    },
    {
      "inputs": [
        {
          "internalType": "address",
          "name": "owner",
          "type": "address"
        },
        {
          "internalType": "uint256",
          "name": "salt",
          "type": "uint256"
        }
      ],
      "name": "getAddress",
      "outputs": [
        {
          "internalType": "address",
          "name": "",
          "type": "address"
        }
      ],
      "stateMutability": "view",
      "type": "function"
    },
    {
      "inputs": [],
      "name": "permissions",
      "outputs": [
        {
          "internalType": "contract BicPermissions",
          "name": "",
          "type": "address"
        }
      ],
      "stateMutability": "view",
      "type": "function"
    }
  ],
  "transactionHash": "0x87f30bd6d58cfefc2bcc406232e4dc6ea9ecaa7093c2a63df1cab2446b4174ad",
  "args": [
    "0xBD51a9B73B759aA7C232C1b6864089E3c59921a8",
    "0xaf4784E1516AF48B89b673368062437A37850FE2"
  ],
  "numDeployments": 1,
  "solcInputHash": "966ddf4397914c3265e9a184c3fa7a3e",
  "bytecode": "0x60c060405234801561001057600080fd5b5060405161361f38038061361f83398101604081905261002f916100a6565b8160405161003c90610081565b6001600160a01b039091168152602001604051809103906000f080158015610068573d6000803e3d6000fd5b506001600160a01b039081166080521660a052506100e0565b612ab780610b6883390190565b6001600160a01b03811681146100a357600080fd5b50565b600080604083850312156100b957600080fd5b82516100c48161008e565b60208401519092506100d58161008e565b809150509250929050565b60805160a051610a4961011f6000396000818160cc0152818161014501526102b301526000818160560152818161016e01526102da0152610a496000f3fe608060405234801561001057600080fd5b506004361061004c5760003560e01c806311464fbe146100515780635fbfb9cf146100a15780638cb84e18146100b4578063ab8c71c0146100c7575b600080fd5b6100787f000000000000000000000000000000000000000000000000000000000000000081565b60405173ffffffffffffffffffffffffffffffffffffffff909116815260200160405180910390f35b6100786100af36600461041f565b6100ee565b6100786100c236600461041f565b610248565b6100787f000000000000000000000000000000000000000000000000000000000000000081565b6000806100fb8484610248565b905073ffffffffffffffffffffffffffffffffffffffff81163b801561012357509050610242565b60405173ffffffffffffffffffffffffffffffffffffffff80871660248301527f000000000000000000000000000000000000000000000000000000000000000016604482015284907f000000000000000000000000000000000000000000000000000000000000000090606401604080517fffffffffffffffffffffffffffffffffffffffffffffffffffffffffffffffe08184030181529181526020820180517bffffffffffffffffffffffffffffffffffffffffffffffffffffffff167f485cc955000000000000000000000000000000000000000000000000000000001790525161021190610412565b61021c929190610488565b8190604051809103906000f590508015801561023c573d6000803e3d6000fd5b50925050505b92915050565b60006103d98260001b6040518060200161026190610412565b7fffffffffffffffffffffffffffffffffffffffffffffffffffffffffffffffe082820381018352601f90910116604081905273ffffffffffffffffffffffffffffffffffffffff80881660248301527f00000000000000000000000000000000000000000000000000000000000000001660448201527f000000000000000000000000000000000000000000000000000000000000000090606401604080517fffffffffffffffffffffffffffffffffffffffffffffffffffffffffffffffe0818403018152918152602080830180517bffffffffffffffffffffffffffffffffffffffffffffffffffffffff167f485cc95500000000000000000000000000000000000000000000000000000000179052905161038293929101610488565b604080517fffffffffffffffffffffffffffffffffffffffffffffffffffffffffffffffe0818403018152908290526103be92916020016104f6565b604051602081830303815290604052805190602001206103e0565b9392505050565b60006103d98383306000604051836040820152846020820152828152600b8101905060ff815360559020949350505050565b6104ee8061052683390190565b6000806040838503121561043257600080fd5b823573ffffffffffffffffffffffffffffffffffffffff8116811461045657600080fd5b946020939093013593505050565b60005b8381101561047f578181015183820152602001610467565b50506000910152565b73ffffffffffffffffffffffffffffffffffffffff8316815260406020820152600082518060408401526104c3816060850160208701610464565b601f017fffffffffffffffffffffffffffffffffffffffffffffffffffffffffffffffe016919091016060019392505050565b60008351610508818460208801610464565b83519083019061051c818360208801610464565b0194935050505056fe60806040526040516104ee3803806104ee833981016040819052610022916102de565b61002e82826000610035565b50506103fb565b61003e83610061565b60008251118061004b5750805b1561005c5761005a83836100a1565b505b505050565b61006a816100cd565b6040516001600160a01b038216907fbc7cd75a20ee27fd9adebab32041f755214dbc6bffa90cc0225b39da2e5c2d3b90600090a250565b60606100c683836040518060600160405280602781526020016104c760279139610180565b9392505050565b6001600160a01b0381163b61013f5760405162461bcd60e51b815260206004820152602d60248201527f455243313936373a206e657720696d706c656d656e746174696f6e206973206e60448201526c1bdd08184818dbdb9d1c9858dd609a1b60648201526084015b60405180910390fd5b7f360894a13ba1a3210667c828492db98dca3e2076cc3735a920a3ca505d382bbc80546001600160a01b0319166001600160a01b0392909216919091179055565b6060600080856001600160a01b03168560405161019d91906103ac565b600060405180830381855af49150503d80600081146101d8576040519150601f19603f3d011682016040523d82523d6000602084013e6101dd565b606091505b5090925090506101ef868383876101f9565b9695505050505050565b60608315610268578251600003610261576001600160a01b0385163b6102615760405162461bcd60e51b815260206004820152601d60248201527f416464726573733a2063616c6c20746f206e6f6e2d636f6e74726163740000006044820152606401610136565b5081610272565b610272838361027a565b949350505050565b81511561028a5781518083602001fd5b8060405162461bcd60e51b815260040161013691906103c8565b634e487b7160e01b600052604160045260246000fd5b60005b838110156102d55781810151838201526020016102bd565b50506000910152565b600080604083850312156102f157600080fd5b82516001600160a01b038116811461030857600080fd5b60208401519092506001600160401b038082111561032557600080fd5b818501915085601f83011261033957600080fd5b81518181111561034b5761034b6102a4565b604051601f8201601f19908116603f01168101908382118183101715610373576103736102a4565b8160405282815288602084870101111561038c57600080fd5b61039d8360208301602088016102ba565b80955050505050509250929050565b600082516103be8184602087016102ba565b9190910192915050565b60208152600082518060208401526103e78160408501602087016102ba565b601f01601f19169190910160400192915050565b60be806104096000396000f3fe608060405236601057600e6013565b005b600e5b601f601b6021565b6065565b565b600060607f360894a13ba1a3210667c828492db98dca3e2076cc3735a920a3ca505d382bbc5473ffffffffffffffffffffffffffffffffffffffff1690565b905090565b3660008037600080366000845af43d6000803e8080156083573d6000f35b3d6000fdfea264697066735822122033d169bd5cb986f60465dc1d6f7bdc987d20a9bfce5e711d793bed66346cb84c64736f6c63430008170033416464726573733a206c6f772d6c6576656c2064656c65676174652063616c6c206661696c6564a2646970667358221220ca7ac0def224261299006a70e435fa9ef319e5f5d02d5bb8d73bed2944ab6ef264736f6c6343000817003360c0604052306080523480156200001557600080fd5b5060405162002ab738038062002ab7833981016040819052620000389162000117565b6001600160a01b03811660a0526200004f62000056565b5062000149565b600054610100900460ff1615620000c35760405162461bcd60e51b815260206004820152602760248201527f496e697469616c697a61626c653a20636f6e747261637420697320696e697469604482015266616c697a696e6760c81b606482015260840160405180910390fd5b60005460ff9081161462000115576000805460ff191660ff9081179091556040519081527f7f26b83ff96e1f2b6a682f133852f6798a09c465da95921460cefb38474024989060200160405180910390a15b565b6000602082840312156200012a57600080fd5b81516001600160a01b03811681146200014257600080fd5b9392505050565b60805160a0516128fb620001bc600039600081816103d201528181610b1d01528181610bcb0152818161107f0152818161113d0152818161138b0152818161154e01526116fc0152600081816105ca0152818161067f01528181610c8701528181610d370152610e8001526128fb6000f3fe6080604052600436106101625760003560e01c806352d1902d116100c0578063b61d27f611610074578063c399ec8811610059578063c399ec881461045e578063d087d28814610473578063f23a6e611461048857600080fd5b8063b61d27f6146103f6578063bc197c811461041657600080fd5b8063a6f9dae1116100a5578063a6f9dae114610376578063ab8c71c014610396578063b0d691fe146103c357600080fd5b806352d1902d146103095780638da5cb5b1461031e57600080fd5b806347e1da2a116101175780634a58db19116100fc5780634a58db19146102ce5780634d44560d146102d65780634f1ef286146102f657600080fd5b806347e1da2a1461028e578063485cc955146102ae57600080fd5b8063150b7a0211610148578063150b7a02146101ca5780633659cfe6146102405780633a871cdd1461026057600080fd5b806223de291461016e57806301ffc9a71461019557600080fd5b3661016957005b600080fd5b34801561017a57600080fd5b5061019361018936600461217f565b5050505050505050565b005b3480156101a157600080fd5b506101b56101b0366004612230565b6104ce565b60405190151581526020015b60405180910390f35b3480156101d657600080fd5b5061020f6101e5366004612272565b7f150b7a020000000000000000000000000000000000000000000000000000000095945050505050565b6040517fffffffff0000000000000000000000000000000000000000000000000000000090911681526020016101c1565b34801561024c57600080fd5b5061019361025b3660046122e5565b6105b3565b34801561026c57600080fd5b5061028061027b366004612302565b6107bd565b6040519081526020016101c1565b34801561029a57600080fd5b506101936102a936600461239b565b6107e3565b3480156102ba57600080fd5b506101936102c9366004612435565b610985565b610193610b1b565b3480156102e257600080fd5b506101936102f136600461246e565b610bc1565b6101936103043660046124c9565b610c70565b34801561031557600080fd5b50610280610e66565b34801561032a57600080fd5b506000546103519062010000900473ffffffffffffffffffffffffffffffffffffffff1681565b60405173ffffffffffffffffffffffffffffffffffffffff90911681526020016101c1565b34801561038257600080fd5b506101936103913660046122e5565b610f52565b3480156103a257600080fd5b506001546103519073ffffffffffffffffffffffffffffffffffffffff1681565b3480156103cf57600080fd5b507f0000000000000000000000000000000000000000000000000000000000000000610351565b34801561040257600080fd5b506101936104113660046125ab565b610fea565b34801561042257600080fd5b5061020f610431366004612607565b7fbc197c810000000000000000000000000000000000000000000000000000000098975050505050505050565b34801561046a57600080fd5b50610280611039565b34801561047f57600080fd5b506102806110f0565b34801561049457600080fd5b5061020f6104a33660046126a5565b7ff23a6e61000000000000000000000000000000000000000000000000000000009695505050505050565b60007fffffffff0000000000000000000000000000000000000000000000000000000082167f150b7a0200000000000000000000000000000000000000000000000000000000148061056157507fffffffff0000000000000000000000000000000000000000000000000000000082167f4e2312e000000000000000000000000000000000000000000000000000000000145b806105ad57507fffffffff0000000000000000000000000000000000000000000000000000000082167f01ffc9a700000000000000000000000000000000000000000000000000000000145b92915050565b73ffffffffffffffffffffffffffffffffffffffff7f000000000000000000000000000000000000000000000000000000000000000016300361067d576040517f08c379a000000000000000000000000000000000000000000000000000000000815260206004820152602c60248201527f46756e6374696f6e206d7573742062652063616c6c6564207468726f7567682060448201527f64656c656761746563616c6c000000000000000000000000000000000000000060648201526084015b60405180910390fd5b7f000000000000000000000000000000000000000000000000000000000000000073ffffffffffffffffffffffffffffffffffffffff166106f27f360894a13ba1a3210667c828492db98dca3e2076cc3735a920a3ca505d382bbc5473ffffffffffffffffffffffffffffffffffffffff1690565b73ffffffffffffffffffffffffffffffffffffffff1614610795576040517f08c379a000000000000000000000000000000000000000000000000000000000815260206004820152602c60248201527f46756e6374696f6e206d7573742062652063616c6c6564207468726f7567682060448201527f6163746976652070726f787900000000000000000000000000000000000000006064820152608401610674565b61079e8161116c565b604080516000808252602082019092526107ba91839190611174565b50565b60006107c7611373565b6107d18484611414565b90506107dc826114cb565b9392505050565b6107eb611536565b8481148015610801575082158061080157508281145b610867576040517f08c379a000000000000000000000000000000000000000000000000000000000815260206004820152601360248201527f77726f6e67206172726179206c656e67746873000000000000000000000000006044820152606401610674565b60008390036109135760005b8581101561090d576109058787838181106108905761089061270f565b90506020020160208101906108a591906122e5565b60008585858181106108b9576108b961270f565b90506020028101906108cb919061273e565b8080601f0160208091040260200160405190810160405280939291908181526020018383808284376000920191909152506115fd92505050565b600101610873565b5061097d565b60005b8581101561097b576109738787838181106109335761093361270f565b905060200201602081019061094891906122e5565b86868481811061095a5761095a61270f565b905060200201358585858181106108b9576108b961270f565b600101610916565b505b505050505050565b600054610100900460ff16158080156109a55750600054600160ff909116105b806109bf5750303b1580156109bf575060005460ff166001145b610a4b576040517f08c379a000000000000000000000000000000000000000000000000000000000815260206004820152602e60248201527f496e697469616c697a61626c653a20636f6e747261637420697320616c72656160448201527f647920696e697469616c697a65640000000000000000000000000000000000006064820152608401610674565b600080547fffffffffffffffffffffffffffffffffffffffffffffffffffffffffffffff001660011790558015610aa957600080547fffffffffffffffffffffffffffffffffffffffffffffffffffffffffffff00ff166101001790555b610ab3838361167a565b8015610b1657600080547fffffffffffffffffffffffffffffffffffffffffffffffffffffffffffff00ff169055604051600181527f7f26b83ff96e1f2b6a682f133852f6798a09c465da95921460cefb38474024989060200160405180910390a15b505050565b7f00000000000000000000000000000000000000000000000000000000000000006040517fb760faf900000000000000000000000000000000000000000000000000000000815230600482015273ffffffffffffffffffffffffffffffffffffffff919091169063b760faf99034906024016000604051808303818588803b158015610ba657600080fd5b505af1158015610bba573d6000803e3d6000fd5b5050505050565b610bc9611746565b7f00000000000000000000000000000000000000000000000000000000000000006040517f205c287800000000000000000000000000000000000000000000000000000000815273ffffffffffffffffffffffffffffffffffffffff848116600483015260248201849052919091169063205c287890604401600060405180830381600087803b158015610c5c57600080fd5b505af115801561097d573d6000803e3d6000fd5b73ffffffffffffffffffffffffffffffffffffffff7f0000000000000000000000000000000000000000000000000000000000000000163003610d35576040517f08c379a000000000000000000000000000000000000000000000000000000000815260206004820152602c60248201527f46756e6374696f6e206d7573742062652063616c6c6564207468726f7567682060448201527f64656c656761746563616c6c00000000000000000000000000000000000000006064820152608401610674565b7f000000000000000000000000000000000000000000000000000000000000000073ffffffffffffffffffffffffffffffffffffffff16610daa7f360894a13ba1a3210667c828492db98dca3e2076cc3735a920a3ca505d382bbc5473ffffffffffffffffffffffffffffffffffffffff1690565b73ffffffffffffffffffffffffffffffffffffffff1614610e4d576040517f08c379a000000000000000000000000000000000000000000000000000000000815260206004820152602c60248201527f46756e6374696f6e206d7573742062652063616c6c6564207468726f7567682060448201527f6163746976652070726f787900000000000000000000000000000000000000006064820152608401610674565b610e568261116c565b610e6282826001611174565b5050565b60003073ffffffffffffffffffffffffffffffffffffffff7f00000000000000000000000000000000000000000000000000000000000000001614610f2d576040517f08c379a000000000000000000000000000000000000000000000000000000000815260206004820152603860248201527f555550535570677261646561626c653a206d757374206e6f742062652063616c60448201527f6c6564207468726f7567682064656c656761746563616c6c00000000000000006064820152608401610674565b507f360894a13ba1a3210667c828492db98dca3e2076cc3735a920a3ca505d382bbc90565b610f5a6117d7565b6000805473ffffffffffffffffffffffffffffffffffffffff838116620100008181027fffffffffffffffffffff0000000000000000000000000000000000000000ffff85161790945560408051949093049091168084526020840191909152917f70aea8d848e8a90fb7661b227dc522eb6395c3dac71b63cb59edd5c9899b2364910160405180910390a15050565b610ff2611536565b611033848484848080601f0160208091040260200160405190810160405280939291908181526020018383808284376000920191909152506115fd92505050565b50505050565b6040517f70a0823100000000000000000000000000000000000000000000000000000000815230600482015260009073ffffffffffffffffffffffffffffffffffffffff7f000000000000000000000000000000000000000000000000000000000000000016906370a08231906024015b602060405180830381865afa1580156110c7573d6000803e3d6000fd5b505050506040513d601f19601f820116820180604052508101906110eb91906127a3565b905090565b6040517f35567e1a0000000000000000000000000000000000000000000000000000000081523060048201526000602482018190529073ffffffffffffffffffffffffffffffffffffffff7f000000000000000000000000000000000000000000000000000000000000000016906335567e1a906044016110aa565b6107ba61197e565b7f4910fdfa16fed3260ed0e7147f7cc6da11a60208b5b9406d12a635614ffd91435460ff16156111a757610b1683611afe565b8273ffffffffffffffffffffffffffffffffffffffff166352d1902d6040518163ffffffff1660e01b8152600401602060405180830381865afa92505050801561122c575060408051601f3d9081017fffffffffffffffffffffffffffffffffffffffffffffffffffffffffffffffe0168201909252611229918101906127a3565b60015b6112b8576040517f08c379a000000000000000000000000000000000000000000000000000000000815260206004820152602e60248201527f45524331393637557067726164653a206e657720696d706c656d656e7461746960448201527f6f6e206973206e6f7420555550530000000000000000000000000000000000006064820152608401610674565b7f360894a13ba1a3210667c828492db98dca3e2076cc3735a920a3ca505d382bbc8114611367576040517f08c379a000000000000000000000000000000000000000000000000000000000815260206004820152602960248201527f45524331393637557067726164653a20756e737570706f727465642070726f7860448201527f6961626c655555494400000000000000000000000000000000000000000000006064820152608401610674565b50610b16838383611c08565b3373ffffffffffffffffffffffffffffffffffffffff7f00000000000000000000000000000000000000000000000000000000000000001614611412576040517f08c379a000000000000000000000000000000000000000000000000000000000815260206004820152601c60248201527f6163636f756e743a206e6f742066726f6d20456e747279506f696e74000000006044820152606401610674565b565b7f19457468657265756d205369676e6564204d6573736167653a0a3332000000006000908152601c829052603c812061148f8161145561014087018761273e565b8080601f016020809104026020016040519081016040528093929190818152602001838380828437600092019190915250611c2d92505050565b60005462010000900473ffffffffffffffffffffffffffffffffffffffff9081169116146114c15760019150506105ad565b5060009392505050565b80156107ba5760405160009033907fffffffffffffffffffffffffffffffffffffffffffffffffffffffffffffffff90849084818181858888f193505050503d8060008114610bba576040519150601f19603f3d011682016040523d82523d6000602084013e610bba565b3373ffffffffffffffffffffffffffffffffffffffff7f0000000000000000000000000000000000000000000000000000000000000000161480611597575060005462010000900473ffffffffffffffffffffffffffffffffffffffff1633145b611412576040517f08c379a000000000000000000000000000000000000000000000000000000000815260206004820181905260248201527f6163636f756e743a206e6f74204f776e6572206f7220456e747279506f696e746044820152606401610674565b6000808473ffffffffffffffffffffffffffffffffffffffff16848460405161162691906127e0565b60006040518083038185875af1925050503d8060008114611663576040519150601f19603f3d011682016040523d82523d6000602084013e611668565b606091505b509150915081610bba57805160208201fd5b600080547fffffffffffffffffffff0000000000000000000000000000000000000000ffff166201000073ffffffffffffffffffffffffffffffffffffffff858116820292909217808455600180547fffffffffffffffffffffffff0000000000000000000000000000000000000000168685161790556040519190048216927f0000000000000000000000000000000000000000000000000000000000000000909216917f2ae19df172d00c22c86e6da0b91e8c821e3d4625e8b6c822e7622ec16ea3da1091a35050565b60005462010000900473ffffffffffffffffffffffffffffffffffffffff1633148061177157503330145b611412576040517f08c379a000000000000000000000000000000000000000000000000000000000815260206004820152600a60248201527f6f6e6c79206f776e6572000000000000000000000000000000000000000000006044820152606401610674565b60005462010000900473ffffffffffffffffffffffffffffffffffffffff163314806119185750600154604080517f31993a1c000000000000000000000000000000000000000000000000000000008152905173ffffffffffffffffffffffffffffffffffffffff909216916391d148549183916331993a1c916004808201926020929091908290030181865afa158015611876573d6000803e3d6000fd5b505050506040513d601f19601f8201168201806040525081019061189a91906127a3565b6040517fffffffff0000000000000000000000000000000000000000000000000000000060e084901b1681526004810191909152336024820152604401602060405180830381865afa1580156118f4573d6000803e3d6000fd5b505050506040513d601f19601f8201168201806040525081019061191891906127fc565b611412576040517f08c379a000000000000000000000000000000000000000000000000000000000815260206004820152601b60248201527f6f6e6c79206f776e6572206f72207265636f7665727920726f6c6500000000006044820152606401610674565b600154604080517ff5b541a6000000000000000000000000000000000000000000000000000000008152905173ffffffffffffffffffffffffffffffffffffffff909216916391d1485491839163f5b541a6916004808201926020929091908290030181865afa1580156119f6573d6000803e3d6000fd5b505050506040513d601f19601f82011682018060405250810190611a1a91906127a3565b6040517fffffffff0000000000000000000000000000000000000000000000000000000060e084901b1681526004810191909152336024820152604401602060405180830381865afa158015611a74573d6000803e3d6000fd5b505050506040513d601f19601f82011682018060405250810190611a9891906127fc565b611412576040517f08c379a000000000000000000000000000000000000000000000000000000000815260206004820152600d60248201527f6f6e6c79206f70657261746f72000000000000000000000000000000000000006044820152606401610674565b73ffffffffffffffffffffffffffffffffffffffff81163b611ba2576040517f08c379a000000000000000000000000000000000000000000000000000000000815260206004820152602d60248201527f455243313936373a206e657720696d706c656d656e746174696f6e206973206e60448201527f6f74206120636f6e7472616374000000000000000000000000000000000000006064820152608401610674565b7f360894a13ba1a3210667c828492db98dca3e2076cc3735a920a3ca505d382bbc80547fffffffffffffffffffffffff00000000000000000000000000000000000000001673ffffffffffffffffffffffffffffffffffffffff92909216919091179055565b611c1183611c51565b600082511180611c1e5750805b15610b16576110338383611c9e565b6000806000611c3c8585611cc3565b91509150611c4981611d08565b509392505050565b611c5a81611afe565b60405173ffffffffffffffffffffffffffffffffffffffff8216907fbc7cd75a20ee27fd9adebab32041f755214dbc6bffa90cc0225b39da2e5c2d3b90600090a250565b60606107dc838360405180606001604052806027815260200161289f60279139611ebb565b6000808251604103611cf95760208301516040840151606085015160001a611ced87828585611f40565b94509450505050611d01565b506000905060025b9250929050565b6000816004811115611d1c57611d1c61281e565b03611d245750565b6001816004811115611d3857611d3861281e565b03611d9f576040517f08c379a000000000000000000000000000000000000000000000000000000000815260206004820152601860248201527f45434453413a20696e76616c6964207369676e617475726500000000000000006044820152606401610674565b6002816004811115611db357611db361281e565b03611e1a576040517f08c379a000000000000000000000000000000000000000000000000000000000815260206004820152601f60248201527f45434453413a20696e76616c6964207369676e6174757265206c656e677468006044820152606401610674565b6003816004811115611e2e57611e2e61281e565b036107ba576040517f08c379a000000000000000000000000000000000000000000000000000000000815260206004820152602260248201527f45434453413a20696e76616c6964207369676e6174757265202773272076616c60448201527f75650000000000000000000000000000000000000000000000000000000000006064820152608401610674565b60606000808573ffffffffffffffffffffffffffffffffffffffff1685604051611ee591906127e0565b600060405180830381855af49150503d8060008114611f20576040519150601f19603f3d011682016040523d82523d6000602084013e611f25565b606091505b5091509150611f368683838761202f565b9695505050505050565b6000807f7fffffffffffffffffffffffffffffff5d576e7357a4501ddfe92f46681b20a0831115611f775750600090506003612026565b6040805160008082526020820180845289905260ff881692820192909252606081018690526080810185905260019060a0016020604051602081039080840390855afa158015611fcb573d6000803e3d6000fd5b50506040517fffffffffffffffffffffffffffffffffffffffffffffffffffffffffffffffe0015191505073ffffffffffffffffffffffffffffffffffffffff811661201f57600060019250925050612026565b9150600090505b94509492505050565b606083156120c55782516000036120be5773ffffffffffffffffffffffffffffffffffffffff85163b6120be576040517f08c379a000000000000000000000000000000000000000000000000000000000815260206004820152601d60248201527f416464726573733a2063616c6c20746f206e6f6e2d636f6e74726163740000006044820152606401610674565b50816120cf565b6120cf83836120d7565b949350505050565b8151156120e75781518083602001fd5b806040517f08c379a0000000000000000000000000000000000000000000000000000000008152600401610674919061284d565b73ffffffffffffffffffffffffffffffffffffffff811681146107ba57600080fd5b60008083601f84011261214f57600080fd5b50813567ffffffffffffffff81111561216757600080fd5b602083019150836020828501011115611d0157600080fd5b60008060008060008060008060c0898b03121561219b57600080fd5b88356121a68161211b565b975060208901356121b68161211b565b965060408901356121c68161211b565b955060608901359450608089013567ffffffffffffffff808211156121ea57600080fd5b6121f68c838d0161213d565b909650945060a08b013591508082111561220f57600080fd5b5061221c8b828c0161213d565b999c989b5096995094979396929594505050565b60006020828403121561224257600080fd5b81357fffffffff00000000000000000000000000000000000000000000000000000000811681146107dc57600080fd5b60008060008060006080868803121561228a57600080fd5b85356122958161211b565b945060208601356122a58161211b565b935060408601359250606086013567ffffffffffffffff8111156122c857600080fd5b6122d48882890161213d565b969995985093965092949392505050565b6000602082840312156122f757600080fd5b81356107dc8161211b565b60008060006060848603121561231757600080fd5b833567ffffffffffffffff81111561232e57600080fd5b8401610160818703121561234157600080fd5b95602085013595506040909401359392505050565b60008083601f84011261236857600080fd5b50813567ffffffffffffffff81111561238057600080fd5b6020830191508360208260051b8501011115611d0157600080fd5b600080600080600080606087890312156123b457600080fd5b863567ffffffffffffffff808211156123cc57600080fd5b6123d88a838b01612356565b909850965060208901359150808211156123f157600080fd5b6123fd8a838b01612356565b9096509450604089013591508082111561241657600080fd5b5061242389828a01612356565b979a9699509497509295939492505050565b6000806040838503121561244857600080fd5b82356124538161211b565b915060208301356124638161211b565b809150509250929050565b6000806040838503121561248157600080fd5b823561248c8161211b565b946020939093013593505050565b7f4e487b7100000000000000000000000000000000000000000000000000000000600052604160045260246000fd5b600080604083850312156124dc57600080fd5b82356124e78161211b565b9150602083013567ffffffffffffffff8082111561250457600080fd5b818501915085601f83011261251857600080fd5b81358181111561252a5761252a61249a565b604051601f82017fffffffffffffffffffffffffffffffffffffffffffffffffffffffffffffffe0908116603f011681019083821181831017156125705761257061249a565b8160405282815288602084870101111561258957600080fd5b8260208601602083013760006020848301015280955050505050509250929050565b600080600080606085870312156125c157600080fd5b84356125cc8161211b565b935060208501359250604085013567ffffffffffffffff8111156125ef57600080fd5b6125fb8782880161213d565b95989497509550505050565b60008060008060008060008060a0898b03121561262357600080fd5b883561262e8161211b565b9750602089013561263e8161211b565b9650604089013567ffffffffffffffff8082111561265b57600080fd5b6126678c838d01612356565b909850965060608b013591508082111561268057600080fd5b61268c8c838d01612356565b909650945060808b013591508082111561220f57600080fd5b60008060008060008060a087890312156126be57600080fd5b86356126c98161211b565b955060208701356126d98161211b565b94506040870135935060608701359250608087013567ffffffffffffffff81111561270357600080fd5b61242389828a0161213d565b7f4e487b7100000000000000000000000000000000000000000000000000000000600052603260045260246000fd5b60008083357fffffffffffffffffffffffffffffffffffffffffffffffffffffffffffffffe184360301811261277357600080fd5b83018035915067ffffffffffffffff82111561278e57600080fd5b602001915036819003821315611d0157600080fd5b6000602082840312156127b557600080fd5b5051919050565b60005b838110156127d75781810151838201526020016127bf565b50506000910152565b600082516127f28184602087016127bc565b9190910192915050565b60006020828403121561280e57600080fd5b815180151581146107dc57600080fd5b7f4e487b7100000000000000000000000000000000000000000000000000000000600052602160045260246000fd5b602081526000825180602084015261286c8160408501602087016127bc565b601f017fffffffffffffffffffffffffffffffffffffffffffffffffffffffffffffffe016919091016040019291505056fe416464726573733a206c6f772d6c6576656c2064656c65676174652063616c6c206661696c6564a264697066735822122004261398490b73846e9f7c45b9f3673be03e926b2c0cbf014f771d56086fc19a64736f6c63430008170033",
  "devdoc": {
    "kind": "dev",
    "methods": {},
    "version": 1
  },
  "userdoc": {
    "kind": "user",
    "methods": {
      "createAccount(address,uint256)": {
        "notice": "create an account, and return its address. returns the address even if the account is already deployed. Note that during UserOperation execution, this method is called only if the account is not deployed. This method returns an existing account address so that entryPoint.getSenderAddress() would work even after account creation"
      },
      "getAddress(address,uint256)": {
        "notice": "calculate the counterfactual address of this account as it would be returned by createAccount()"
      }
    },
    "notice": "A sample factory contract for BicAccount A UserOperations \"initCode\" holds the address of the factory, and a method call (to createAccount, in this sample factory). The factory's createAccount returns the target account address even if it is already installed. This way, the entryPoint.getSenderAddress() can be called either before or after the account is created.",
    "version": 1
  },
  "storageLayout": {
    "storage": [],
    "types": null
  }
}